{
  "contractName": "Metropolis",
  "abi": [
    {
      "inputs": [],
      "payable": false,
      "stateMutability": "nonpayable",
      "type": "constructor"
    },
    {
      "anonymous": false,
      "inputs": [
        {
          "indexed": false,
          "name": "storeId",
          "type": "uint256"
        },
        {
          "indexed": false,
          "name": "storeOwner",
          "type": "address"
        },
        {
          "indexed": false,
          "name": "name",
          "type": "string"
        }
      ],
      "name": "LogStore",
      "type": "event"
    },
    {
      "anonymous": false,
      "inputs": [
        {
          "indexed": false,
          "name": "itemId",
          "type": "uint256"
        },
        {
          "indexed": false,
          "name": "owner",
          "type": "address"
        },
        {
          "indexed": false,
          "name": "isForSale",
          "type": "bool"
        },
        {
          "indexed": false,
          "name": "name",
          "type": "string"
        },
        {
          "indexed": false,
          "name": "imgUrl",
          "type": "string"
        },
        {
          "indexed": false,
          "name": "price",
          "type": "uint256"
        }
      ],
      "name": "LogItem",
      "type": "event"
    },
    {
      "constant": false,
      "inputs": [
        {
          "name": "newStoreOwner",
          "type": "address"
        }
      ],
      "name": "addStoreOwner",
      "outputs": [],
      "payable": false,
      "stateMutability": "nonpayable",
      "type": "function"
    },
    {
      "constant": false,
      "inputs": [
        {
          "name": "nameOfStore",
          "type": "string"
        }
      ],
      "name": "createStore",
      "outputs": [
        {
          "name": "storeId",
          "type": "uint256"
        }
      ],
      "payable": false,
      "stateMutability": "nonpayable",
      "type": "function"
    },
    {
      "constant": false,
      "inputs": [
        {
          "name": "storeId",
          "type": "uint256"
        },
        {
          "name": "name",
          "type": "string"
        },
        {
          "name": "imgUrl",
          "type": "string"
        },
        {
          "name": "price",
          "type": "uint256"
        }
      ],
      "name": "addItem",
      "outputs": [
        {
          "name": "itemId",
          "type": "uint256"
        }
      ],
      "payable": false,
      "stateMutability": "nonpayable",
      "type": "function"
    },
    {
      "constant": false,
      "inputs": [],
      "name": "emitStores",
      "outputs": [],
      "payable": false,
      "stateMutability": "nonpayable",
      "type": "function"
    },
    {
      "constant": false,
      "inputs": [
        {
          "name": "storeId",
          "type": "uint256"
        }
      ],
      "name": "emitItemsWithStoreId",
      "outputs": [],
      "payable": false,
      "stateMutability": "nonpayable",
      "type": "function"
    }
  ],
  "bytecode": "0x6080604052600060045534801561001557600080fd5b50336000806101000a81548173ffffffffffffffffffffffffffffffffffffffff021916908373ffffffffffffffffffffffffffffffffffffffff16021790555060018060008060009054906101000a900473ffffffffffffffffffffffffffffffffffffffff1673ffffffffffffffffffffffffffffffffffffffff1673ffffffffffffffffffffffffffffffffffffffff16815260200190815260200160002060006101000a81548160ff021916908315150217905550610aad806100dd6000396000f30060806040526004361061006d576000357c0100000000000000000000000000000000000000000000000000000000900463ffffffff1680633cf0d9651461007257806382b14cf31461009f5780638dbf7582146101765780639adeb5f11461018d578063d0e04fe3146101d0575b600080fd5b34801561007e57600080fd5b5061009d6004803603810190808035906020019092919050505061024d565b005b3480156100ab57600080fd5b5061016060048036038101908080359060200190929190803590602001908201803590602001908080601f0160208091040260200160405190810160405280939291908181526020018383808284378201915050505050509192919290803590602001908201803590602001908080601f01602080910402602001604051908101604052809392919081815260200183838082843782019150505050505091929192908035906020019092919050505061048c565b6040518082815260200191505060405180910390f35b34801561018257600080fd5b5061018b6106a4565b005b34801561019957600080fd5b506101ce600480360381019080803573ffffffffffffffffffffffffffffffffffffffff1690602001909291905050506107fc565b005b3480156101dc57600080fd5b50610237600480360381019080803590602001908201803590602001908080601f01602080910402602001604051908101604052809392919081815260200183838082843782019150505050505091929192905050506108b1565b6040518082815260200191505060405180910390f35b60008060008060026000868152602001908152602001600020935060036000868152602001908152602001600020549250600091505b828210156104855783600301600083815260200190815260200160002090507f629ef83af9de8d21f5e91a2274224b7a8024f82f35f3ee484d24b0b0c1f482a681600001548260010160009054906101000a900473ffffffffffffffffffffffffffffffffffffffff168360010160149054906101000a900460ff1684600201856003018660040154604051808781526020018673ffffffffffffffffffffffffffffffffffffffff1673ffffffffffffffffffffffffffffffffffffffff1681526020018515151515815260200180602001806020018481526020018381038352868181546001816001161561010002031660029004815260200191508054600181600116156101000203166002900480156103e15780601f106103b6576101008083540402835291602001916103e1565b820191906000526020600020905b8154815290600101906020018083116103c457829003601f168201915b50508381038252858181546001816001161561010002031660029004815260200191508054600181600116156101000203166002900480156104645780601f1061043957610100808354040283529160200191610464565b820191906000526020600020905b81548152906001019060200180831161044757829003601f168201915b50509850505050505050505060405180910390a18180600101925050610283565b5050505050565b6000806000600160003373ffffffffffffffffffffffffffffffffffffffff1673ffffffffffffffffffffffffffffffffffffffff16815260200190815260200160002060009054906101000a900460ff1615156104e957600080fd5b6002600088815260200190815260200160002091503390508073ffffffffffffffffffffffffffffffffffffffff168260010160009054906101000a900473ffffffffffffffffffffffffffffffffffffffff1673ffffffffffffffffffffffffffffffffffffffff1614151561055f57600080fd5b60036000888152602001908152602001600020600081548092919060010191905055925060c0604051908101604052808481526020018273ffffffffffffffffffffffffffffffffffffffff168152602001600115158152602001878152602001868152602001858152508260030160008581526020019081526020016000206000820151816000015560208201518160010160006101000a81548173ffffffffffffffffffffffffffffffffffffffff021916908373ffffffffffffffffffffffffffffffffffffffff16021790555060408201518160010160146101000a81548160ff021916908315150217905550606082015181600201908051906020019061066c9291906109dc565b5060808201518160030190805190602001906106899291906109dc565b5060a082015181600401559050508292505050949350505050565b600080600091505b6004548210156107f8576002600083815260200190815260200160002090507f545a6e2362b34f4059d78b4ab04a4d76ecc381fb01c9de050675f78b8bc4265781600001548260010160009054906101000a900473ffffffffffffffffffffffffffffffffffffffff1683600201604051808481526020018373ffffffffffffffffffffffffffffffffffffffff1673ffffffffffffffffffffffffffffffffffffffff168152602001806020018281038252838181546001816001161561010002031660029004815260200191508054600181600116156101000203166002900480156107db5780601f106107b0576101008083540402835291602001916107db565b820191906000526020600020905b8154815290600101906020018083116107be57829003601f168201915b505094505050505060405180910390a181806001019250506106ac565b5050565b6000809054906101000a900473ffffffffffffffffffffffffffffffffffffffff1673ffffffffffffffffffffffffffffffffffffffff163373ffffffffffffffffffffffffffffffffffffffff1614151561085757600080fd5b60018060008373ffffffffffffffffffffffffffffffffffffffff1673ffffffffffffffffffffffffffffffffffffffff16815260200190815260200160002060006101000a81548160ff02191690831515021790555050565b6000600160003373ffffffffffffffffffffffffffffffffffffffff1673ffffffffffffffffffffffffffffffffffffffff16815260200190815260200160002060009054906101000a900460ff16151561090b57600080fd5b600460008154809291906001019190505590506060604051908101604052808281526020013373ffffffffffffffffffffffffffffffffffffffff16815260200183815250600260008381526020019081526020016000206000820151816000015560208201518160010160006101000a81548173ffffffffffffffffffffffffffffffffffffffff021916908373ffffffffffffffffffffffffffffffffffffffff16021790555060408201518160020190805190602001906109d09291906109dc565b50905050809050919050565b828054600181600116156101000203166002900490600052602060002090601f016020900481019282601f10610a1d57805160ff1916838001178555610a4b565b82800160010185558215610a4b579182015b82811115610a4a578251825591602001919060010190610a2f565b5b509050610a589190610a5c565b5090565b610a7e91905b80821115610a7a576000816000905550600101610a62565b5090565b905600a165627a7a723058204f618bc79e2d45c6184a390c899c0455f9be371c92436e1d4d9ff8bc2991d89b0029",
  "source": "// pragma solidity ^0.4.17;\n\n// contract Adoption {\n//     address[16] public adopters;\n\n//     function adopt(uint petId) public returns (uint) {\n//         require(petId >= 0 && petId <= 15);\n\n//         adopters[petId] = msg.sender;\n\n//         return petId;\n//     }\n\n//     function getAdopters() public view returns (address[16]) {\n//         return adopters;\n//     }\n// }\n\npragma solidity ^0.4.23;\n\ncontract Metropolis {\n    address admin;\n    mapping(address => bool) storeOwners;\n    mapping (uint => Store) stores;\n    mapping (uint => uint) itemCountAtStore;\n\n    uint storeCount = 0;\n\n    constructor() public {\n        admin = msg.sender;\n        storeOwners[admin] = true;\n    }\n\n    // Structs\n\n    struct Item {\n        uint itemId;\n        address owner;\n        bool isForSale;\n        string name;\n        string imgUrl;\n        uint price;\n    }\n\n    struct Store {\n        uint storeId;\n        address storeOwner;\n        string name;\n        mapping (uint => Item) items;\n    }\n\n    // Modifiers\n\n    modifier onlyAdmin() {\n        require(msg.sender == admin);\n        // TODO: Why the _;\n        _;\n    }\n\n    modifier onlyStoreOwners() {\n        require(storeOwners[msg.sender]);\n        _;\n    }\n\n    // Events\n\n    event LogStore(uint storeId, address storeOwner, string name);\n    event LogItem(uint itemId, address owner, bool isForSale, string name, string imgUrl, uint price);\n\n    // Functions\n\n    function addStoreOwner(address newStoreOwner) onlyAdmin {\n        storeOwners[newStoreOwner] = true;\n    }\n\n    function createStore(string nameOfStore) onlyStoreOwners returns (uint storeId) {\n        storeId = storeCount++;\n\n        stores[storeId] = Store(storeId, msg.sender, nameOfStore);\n\n        return storeId;\n    }\n\n    function addItem(uint storeId, string name, string imgUrl, uint price) onlyStoreOwners returns (uint itemId) {\n        // require that the store owner is the correct owner\n        Store storage s = stores[storeId];\n        address sender = msg.sender;\n        require(s.storeOwner == sender);\n\n        itemId = itemCountAtStore[storeId]++;\n\n        s.items[itemId] = Item(itemId, sender, true, name, imgUrl, price);\n\n        return itemId;\n\n    }\n\n    // Emit\n\n    function emitStores() public {\n        for (uint i = 0; i < storeCount; i++) {\n            Store storage s = stores[i];\n            emit LogStore(\n                s.storeId,\n                s.storeOwner,\n                s.name\n            );\n        }\n    }\n\n    function emitItemsWithStoreId(uint storeId) public {\n        Store storage s = stores[storeId];\n        uint c = itemCountAtStore[storeId];\n        for (uint i = 0; i < c; i++) {\n            Item storage it = s.items[i];\n            emit LogItem(\n                it.itemId,\n                it.owner,\n                it.isForSale,\n                it.name,\n                it.imgUrl,\n                it.price\n            );\n        }\n    }\n}",
  "sourcePath": "/Users/guymorita/Projects/pet-shop-tutorial/contracts/Metropolis.sol",
  "compiler": {
    "name": "solc",
    "version": "0.4.24+commit.e67f0147.Emscripten.clang"
  },
  "schemaVersion": "2.0.1",
  "updatedAt": "2018-08-24T19:50:23.645Z"
}