{
  "contractName": "Metropolis",
  "abi": [
    {
      "inputs": [],
      "payable": false,
      "stateMutability": "nonpayable",
      "type": "constructor"
    },
    {
      "anonymous": false,
      "inputs": [
        {
          "indexed": false,
          "name": "storeId",
          "type": "uint256"
        },
        {
          "indexed": false,
          "name": "storeOwner",
          "type": "address"
        },
        {
          "indexed": false,
          "name": "name",
          "type": "string"
        }
      ],
      "name": "LogStore",
      "type": "event"
    },
    {
      "anonymous": false,
      "inputs": [
        {
          "indexed": false,
          "name": "itemId",
          "type": "uint256"
        },
        {
          "indexed": false,
          "name": "owner",
          "type": "address"
        },
        {
          "indexed": false,
          "name": "isForSale",
          "type": "bool"
        },
        {
          "indexed": false,
          "name": "name",
          "type": "string"
        },
        {
          "indexed": false,
          "name": "imgUrl",
          "type": "string"
        },
        {
          "indexed": false,
          "name": "priceInWei",
          "type": "uint256"
        }
      ],
      "name": "LogItem",
      "type": "event"
    },
    {
      "constant": true,
      "inputs": [],
      "name": "getRole",
      "outputs": [
        {
          "name": "",
          "type": "string"
        }
      ],
      "payable": false,
      "stateMutability": "view",
      "type": "function"
    },
    {
      "constant": false,
      "inputs": [
        {
          "name": "newStoreOwner",
          "type": "address"
        }
      ],
      "name": "addStoreOwner",
      "outputs": [
        {
          "name": "",
          "type": "bool"
        }
      ],
      "payable": false,
      "stateMutability": "nonpayable",
      "type": "function"
    },
    {
      "constant": false,
      "inputs": [
        {
          "name": "nameOfStore",
          "type": "string"
        }
      ],
      "name": "createStore",
      "outputs": [
        {
          "name": "storeId",
          "type": "uint256"
        }
      ],
      "payable": false,
      "stateMutability": "nonpayable",
      "type": "function"
    },
    {
      "constant": false,
      "inputs": [
        {
          "name": "storeId",
          "type": "uint256"
        },
        {
          "name": "name",
          "type": "string"
        },
        {
          "name": "imgUrl",
          "type": "string"
        },
        {
          "name": "priceInWei",
          "type": "uint256"
        }
      ],
      "name": "addItem",
      "outputs": [
        {
          "name": "itemId",
          "type": "uint256"
        }
      ],
      "payable": false,
      "stateMutability": "nonpayable",
      "type": "function"
    },
    {
      "constant": false,
      "inputs": [
        {
          "name": "storeId",
          "type": "uint256"
        },
        {
          "name": "itemId",
          "type": "uint256"
        }
      ],
      "name": "buyItem",
      "outputs": [
        {
          "name": "",
          "type": "bool"
        }
      ],
      "payable": true,
      "stateMutability": "payable",
      "type": "function"
    },
    {
      "constant": false,
      "inputs": [
        {
          "name": "storeId",
          "type": "uint256"
        }
      ],
      "name": "withdrawBalance",
      "outputs": [
        {
          "name": "",
          "type": "bool"
        }
      ],
      "payable": false,
      "stateMutability": "nonpayable",
      "type": "function"
    },
    {
      "constant": false,
      "inputs": [],
      "name": "emitStores",
      "outputs": [],
      "payable": false,
      "stateMutability": "nonpayable",
      "type": "function"
    },
    {
      "constant": false,
      "inputs": [
        {
          "name": "storeId",
          "type": "uint256"
        }
      ],
      "name": "emitItemsWithStoreId",
      "outputs": [],
      "payable": false,
      "stateMutability": "nonpayable",
      "type": "function"
    }
  ],
  "bytecode": "0x6080604052600060045534801561001557600080fd5b50336000806101000a81548173ffffffffffffffffffffffffffffffffffffffff021916908373ffffffffffffffffffffffffffffffffffffffff16021790555060018060008060009054906101000a900473ffffffffffffffffffffffffffffffffffffffff1673ffffffffffffffffffffffffffffffffffffffff1673ffffffffffffffffffffffffffffffffffffffff16815260200190815260200160002060006101000a81548160ff021916908315150217905550610e24806100dd6000396000f30060806040526004361061008e576000357c0100000000000000000000000000000000000000000000000000000000900463ffffffff1680633cf0d9651461009357806382b14cf3146100c05780638dbf7582146101975780639979c009146101ae5780639adeb5f1146101f0578063d0e04fe31461024b578063da76d5cd146102c8578063fde081741461030d575b600080fd5b34801561009f57600080fd5b506100be6004803603810190808035906020019092919050505061039d565b005b3480156100cc57600080fd5b5061018160048036038101908080359060200190929190803590602001908201803590602001908080601f0160208091040260200160405190810160405280939291908181526020018383808284378201915050505050509192919290803590602001908201803590602001908080601f0160208091040260200160405190810160405280939291908181526020018383808284378201915050505050509192919290803590602001909291905050506105dc565b6040518082815260200191505060405180910390f35b3480156101a357600080fd5b506101ac6107af565b005b6101d66004803603810190808035906020019092919080359060200190929190505050610907565b604051808215151515815260200191505060405180910390f35b3480156101fc57600080fd5b50610231600480360381019080803573ffffffffffffffffffffffffffffffffffffffff1690602001909291905050506109a8565b604051808215151515815260200191505060405180910390f35b34801561025757600080fd5b506102b2600480360381019080803590602001908201803590602001908080601f0160208091040260200160405190810160405280939291908181526020018383808284378201915050505050509192919290505050610a1d565b6040518082815260200191505060405180910390f35b3480156102d457600080fd5b506102f360048036038101908080359060200190929190505050610b14565b604051808215151515815260200191505060405180910390f35b34801561031957600080fd5b50610322610bd6565b6040518080602001828103825283818151815260200191508051906020019080838360005b83811015610362578082015181840152602081019050610347565b50505050905090810190601f16801561038f5780820380516001836020036101000a031916815260200191505b509250505060405180910390f35b60008060008060026000868152602001908152602001600020935060036000868152602001908152602001600020549250600091505b828210156105d55783600401600083815260200190815260200160002090507f629ef83af9de8d21f5e91a2274224b7a8024f82f35f3ee484d24b0b0c1f482a681600001548260010160009054906101000a900473ffffffffffffffffffffffffffffffffffffffff168360010160149054906101000a900460ff1684600201856003018660040154604051808781526020018673ffffffffffffffffffffffffffffffffffffffff1673ffffffffffffffffffffffffffffffffffffffff1681526020018515151515815260200180602001806020018481526020018381038352868181546001816001161561010002031660029004815260200191508054600181600116156101000203166002900480156105315780601f1061050657610100808354040283529160200191610531565b820191906000526020600020905b81548152906001019060200180831161051457829003601f168201915b50508381038252858181546001816001161561010002031660029004815260200191508054600181600116156101000203166002900480156105b45780601f10610589576101008083540402835291602001916105b4565b820191906000526020600020905b81548152906001019060200180831161059757829003601f168201915b50509850505050505050505060405180910390a181806001019250506103d3565b5050505050565b60008060006105e9610ca8565b15156105f457600080fd5b6002600088815260200190815260200160002091503390508073ffffffffffffffffffffffffffffffffffffffff168260010160009054906101000a900473ffffffffffffffffffffffffffffffffffffffff1673ffffffffffffffffffffffffffffffffffffffff1614151561066a57600080fd5b60036000888152602001908152602001600020600081548092919060010191905055925060c0604051908101604052808481526020018273ffffffffffffffffffffffffffffffffffffffff168152602001600115158152602001878152602001868152602001858152508260040160008581526020019081526020016000206000820151816000015560208201518160010160006101000a81548173ffffffffffffffffffffffffffffffffffffffff021916908373ffffffffffffffffffffffffffffffffffffffff16021790555060408201518160010160146101000a81548160ff0219169083151502179055506060820151816002019080519060200190610777929190610d53565b506080820151816003019080519060200190610794929190610d53565b5060a082015181600401559050508292505050949350505050565b600080600091505b600454821015610903576002600083815260200190815260200160002090507f545a6e2362b34f4059d78b4ab04a4d76ecc381fb01c9de050675f78b8bc4265781600001548260010160009054906101000a900473ffffffffffffffffffffffffffffffffffffffff1683600201604051808481526020018373ffffffffffffffffffffffffffffffffffffffff1673ffffffffffffffffffffffffffffffffffffffff168152602001806020018281038252838181546001816001161561010002031660029004815260200191508054600181600116156101000203166002900480156108e65780601f106108bb576101008083540402835291602001916108e6565b820191906000526020600020905b8154815290600101906020018083116108c957829003601f168201915b505094505050505060405180910390a181806001019250506107b7565b5050565b6000806000600260008681526020019081526020016000209150816004016000858152602001908152602001600020905080600401543414151561094a57600080fd5b348260030154018260030181905550338160010160006101000a81548173ffffffffffffffffffffffffffffffffffffffff021916908373ffffffffffffffffffffffffffffffffffffffff16021790555060019250505092915050565b60006109b2610cfc565b15156109bd57600080fd5b60018060008473ffffffffffffffffffffffffffffffffffffffff1673ffffffffffffffffffffffffffffffffffffffff16815260200190815260200160002060006101000a81548160ff02191690831515021790555060019050919050565b6000610a27610ca8565b1515610a3257600080fd5b600460008154809291906001019190505590506080604051908101604052808281526020013373ffffffffffffffffffffffffffffffffffffffff1681526020018381526020016000815250600260008381526020019081526020016000206000820151816000015560208201518160010160006101000a81548173ffffffffffffffffffffffffffffffffffffffff021916908373ffffffffffffffffffffffffffffffffffffffff1602179055506040820151816002019080519060200190610afe929190610d53565b5060608201518160030155905050809050919050565b600080610b1f610ca8565b1515610b2a57600080fd5b6002600084815260200190815260200160002090506000816003015410151515610b5357600080fd5b8060010160009054906101000a900473ffffffffffffffffffffffffffffffffffffffff1673ffffffffffffffffffffffffffffffffffffffff166108fc82600301549081150290604051600060405180830381858888f19350505050158015610bc1573d6000803e3d6000fd5b50600081600301819055506001915050919050565b6060610be0610cfc565b15610c22576040805190810160405280600581526020017f61646d696e0000000000000000000000000000000000000000000000000000008152509050610ca5565b610c2a610ca8565b15610c6c576040805190810160405280600a81526020017f73746f72654f776e6572000000000000000000000000000000000000000000008152509050610ca5565b6040805190810160405280600781526020017f76697369746f720000000000000000000000000000000000000000000000000081525090505b90565b6000600160003373ffffffffffffffffffffffffffffffffffffffff1673ffffffffffffffffffffffffffffffffffffffff16815260200190815260200160002060009054906101000a900460ff16905090565b60008060009054906101000a900473ffffffffffffffffffffffffffffffffffffffff1673ffffffffffffffffffffffffffffffffffffffff163373ffffffffffffffffffffffffffffffffffffffff1614905090565b828054600181600116156101000203166002900490600052602060002090601f016020900481019282601f10610d9457805160ff1916838001178555610dc2565b82800160010185558215610dc2579182015b82811115610dc1578251825591602001919060010190610da6565b5b509050610dcf9190610dd3565b5090565b610df591905b80821115610df1576000816000905550600101610dd9565b5090565b905600a165627a7a72305820bf10167f5604da24dbb34fcab773483d646eb008bb32916081b67751d59f50c40029",
  "source": "pragma solidity ^0.4.23;\n\n\ncontract Metropolis {\n    address admin;\n    mapping(address => bool) storeOwners;\n    mapping (uint => Store) stores;\n    mapping (uint => uint) itemCountAtStore;\n\n    uint storeCount = 0;\n\n    constructor() public {\n        admin = msg.sender;\n        storeOwners[admin] = true;\n    }\n\n    // Structs\n\n    struct Item {\n        uint itemId;\n        address owner;\n        bool isForSale;\n        string name;\n        string imgUrl;\n        uint priceInWei;\n    }\n\n    struct Store {\n        uint storeId;\n        address storeOwner;\n        string name;\n        uint balanceInWei;\n        mapping (uint => Item) items;\n    }\n\n    // Modifiers\n\n    function isAdmin() private view returns (bool) {\n        return msg.sender == admin;\n    }\n\n    modifier onlyAdmin() {\n        require(isAdmin());\n        // TODO: Why the _;\n        _;\n    }\n\n    function isStoreOwner() private view returns (bool) {\n        return storeOwners[msg.sender];\n    }\n\n    modifier onlyStoreOwners() {\n        require(isStoreOwner());\n        _;\n    }\n\n    // Events\n\n    event LogStore(uint storeId, address storeOwner, string name);\n    event LogItem(uint itemId, address owner, bool isForSale, string name, string imgUrl, uint priceInWei);\n\n    // External Functions\n\n    function getRole() public view returns (string) {\n        if (isAdmin()) {\n            return \"admin\";\n        } else if (isStoreOwner()) {\n            return \"storeOwner\";\n        } else {\n            return \"visitor\";\n        }\n    }\n\n    function addStoreOwner(address newStoreOwner) public onlyAdmin returns (bool) {\n        storeOwners[newStoreOwner] = true;\n        return true;\n    }\n\n    function createStore(string nameOfStore) public onlyStoreOwners returns (uint storeId) {\n        storeId = storeCount++;\n\n        stores[storeId] = Store(storeId, msg.sender, nameOfStore, 0);\n\n        return storeId;\n    }\n\n    function addItem(uint storeId, string name, string imgUrl, uint priceInWei) public onlyStoreOwners returns (uint itemId) {\n        // require that the store owner is the correct owner\n        Store storage s = stores[storeId];\n        address sender = msg.sender;\n        require(s.storeOwner == sender);\n\n        itemId = itemCountAtStore[storeId]++;\n\n        s.items[itemId] = Item(itemId, sender, true, name, imgUrl, priceInWei);\n\n        return itemId;\n    }\n\n    function buyItem(uint storeId, uint itemId) public payable returns (bool) {\n        Store storage s = stores[storeId];\n        Item storage i = s.items[itemId];\n\n        require(msg.value == i.priceInWei);\n\n        s.balanceInWei = s.balanceInWei + msg.value;\n\n        i.owner = msg.sender;\n\n        return true;\n    }\n\n    function withdrawBalance(uint storeId) public onlyStoreOwners returns (bool) {\n        Store storage s = stores[storeId];\n\n        require(s.balanceInWei >= 0);\n\n        s.storeOwner.transfer(s.balanceInWei);\n        s.balanceInWei = 0;\n\n        return true;\n    }\n\n    // Emit\n\n    function emitStores() public {\n        for (uint i = 0; i < storeCount; i++) {\n            Store storage s = stores[i];\n            emit LogStore(\n                s.storeId,\n                s.storeOwner,\n                s.name\n            );\n        }\n    }\n\n    function emitItemsWithStoreId(uint storeId) public {\n        Store storage s = stores[storeId];\n        uint c = itemCountAtStore[storeId];\n        for (uint i = 0; i < c; i++) {\n            Item storage it = s.items[i];\n            emit LogItem(\n                it.itemId,\n                it.owner,\n                it.isForSale,\n                it.name,\n                it.imgUrl,\n                it.priceInWei\n            );\n        }\n    }\n}",
  "sourcePath": "/Users/guymorita/Projects/metropolis/contracts/Metropolis.sol",
  "compiler": {
    "name": "solc",
    "version": "0.4.24+commit.e67f0147.Emscripten.clang"
  },
  "schemaVersion": "2.0.1",
  "updatedAt": "2018-08-25T15:19:12.471Z"
}